{
  "_format": "hh-sol-artifact-1",
  "contractName": "OrderContract",
  "sourceName": "contracts/OrderContract.sol",
  "abi": [
    {
      "inputs": [
        {
          "internalType": "address",
          "name": "_rco",
          "type": "address"
        },
        {
          "internalType": "address",
          "name": "_nft",
          "type": "address"
        },
        {
          "internalType": "address",
          "name": "_platform",
          "type": "address"
        }
      ],
      "stateMutability": "nonpayable",
      "type": "constructor"
    },
    {
      "anonymous": false,
      "inputs": [
        {
          "indexed": true,
          "internalType": "uint256",
          "name": "orderId",
          "type": "uint256"
        },
        {
          "indexed": true,
          "internalType": "address",
          "name": "platform",
          "type": "address"
        },
        {
          "indexed": false,
          "internalType": "uint256",
          "name": "platformFee",
          "type": "uint256"
        }
      ],
      "name": "FeeCharged",
      "type": "event"
    },
    {
      "anonymous": false,
      "inputs": [
        {
          "indexed": true,
          "internalType": "uint256",
          "name": "orderId",
          "type": "uint256"
        },
        {
          "indexed": true,
          "internalType": "address",
          "name": "merchant",
          "type": "address"
        }
      ],
      "name": "OrderAccepted",
      "type": "event"
    },
    {
      "anonymous": false,
      "inputs": [
        {
          "indexed": true,
          "internalType": "uint256",
          "name": "orderId",
          "type": "uint256"
        },
        {
          "indexed": true,
          "internalType": "address",
          "name": "customer",
          "type": "address"
        },
        {
          "indexed": false,
          "internalType": "uint256",
          "name": "merchantId",
          "type": "uint256"
        },
        {
          "indexed": false,
          "internalType": "uint256[]",
          "name": "dishIds",
          "type": "uint256[]"
        },
        {
          "indexed": false,
          "internalType": "uint256[]",
          "name": "qtys",
          "type": "uint256[]"
        },
        {
          "indexed": false,
          "internalType": "uint256",
          "name": "amount",
          "type": "uint256"
        }
      ],
      "name": "OrderCreated",
      "type": "event"
    },
    {
      "anonymous": false,
      "inputs": [
        {
          "indexed": true,
          "internalType": "uint256",
          "name": "orderId",
          "type": "uint256"
        },
        {
          "indexed": true,
          "internalType": "address",
          "name": "customer",
          "type": "address"
        },
        {
          "indexed": true,
          "internalType": "address",
          "name": "merchant",
          "type": "address"
        },
        {
          "indexed": false,
          "internalType": "address",
          "name": "rider",
          "type": "address"
        },
        {
          "indexed": false,
          "internalType": "uint256",
          "name": "amount",
          "type": "uint256"
        },
        {
          "indexed": false,
          "internalType": "uint256",
          "name": "platformFee",
          "type": "uint256"
        },
        {
          "indexed": false,
          "internalType": "uint256",
          "name": "userReward",
          "type": "uint256"
        },
        {
          "indexed": false,
          "internalType": "uint256",
          "name": "merchantReward",
          "type": "uint256"
        },
        {
          "indexed": false,
          "internalType": "uint256",
          "name": "riderReward",
          "type": "uint256"
        },
        {
          "indexed": false,
          "internalType": "address",
          "name": "platform",
          "type": "address"
        }
      ],
      "name": "OrderFulfilled",
      "type": "event"
    },
    {
      "anonymous": false,
      "inputs": [
        {
          "indexed": true,
          "internalType": "uint256",
          "name": "orderId",
          "type": "uint256"
        },
        {
          "indexed": true,
          "internalType": "address",
          "name": "rider",
          "type": "address"
        }
      ],
      "name": "OrderPicked",
      "type": "event"
    },
    {
      "inputs": [],
      "name": "MERCHANT_REWARD",
      "outputs": [
        {
          "internalType": "uint256",
          "name": "",
          "type": "uint256"
        }
      ],
      "stateMutability": "view",
      "type": "function"
    },
    {
      "inputs": [],
      "name": "PLATFORM_FEE",
      "outputs": [
        {
          "internalType": "uint256",
          "name": "",
          "type": "uint256"
        }
      ],
      "stateMutability": "view",
      "type": "function"
    },
    {
      "inputs": [],
      "name": "RIDER_REWARD",
      "outputs": [
        {
          "internalType": "uint256",
          "name": "",
          "type": "uint256"
        }
      ],
      "stateMutability": "view",
      "type": "function"
    },
    {
      "inputs": [],
      "name": "USER_REWARD",
      "outputs": [
        {
          "internalType": "uint256",
          "name": "",
          "type": "uint256"
        }
      ],
      "stateMutability": "view",
      "type": "function"
    },
    {
      "inputs": [
        {
          "internalType": "uint256",
          "name": "orderId",
          "type": "uint256"
        }
      ],
      "name": "acceptOrder",
      "outputs": [],
      "stateMutability": "nonpayable",
      "type": "function"
    },
    {
      "inputs": [
        {
          "internalType": "uint256",
          "name": "merchantId",
          "type": "uint256"
        },
        {
          "internalType": "uint256[]",
          "name": "dishIds",
          "type": "uint256[]"
        },
        {
          "internalType": "uint256[]",
          "name": "qtys",
          "type": "uint256[]"
        }
      ],
      "name": "createOrder",
      "outputs": [
        {
          "internalType": "uint256",
          "name": "orderId",
          "type": "uint256"
        }
      ],
      "stateMutability": "payable",
      "type": "function"
    },
    {
      "inputs": [
        {
          "internalType": "uint256",
          "name": "orderId",
          "type": "uint256"
        }
      ],
      "name": "fulfillOrder",
      "outputs": [],
      "stateMutability": "nonpayable",
      "type": "function"
    },
    {
      "inputs": [
        {
          "internalType": "uint256",
          "name": "id",
          "type": "uint256"
        }
      ],
      "name": "getOrder",
      "outputs": [
        {
          "components": [
            {
              "internalType": "address",
              "name": "customer",
              "type": "address"
            },
            {
              "internalType": "address",
              "name": "merchant",
              "type": "address"
            },
            {
              "internalType": "address",
              "name": "rider",
              "type": "address"
            },
            {
              "internalType": "uint256",
              "name": "amount",
              "type": "uint256"
            },
            {
              "internalType": "uint256",
              "name": "platformFee",
              "type": "uint256"
            },
            {
              "internalType": "bool",
              "name": "accepted",
              "type": "bool"
            },
            {
              "internalType": "bool",
              "name": "picked",
              "type": "bool"
            },
            {
              "internalType": "bool",
              "name": "fulfilled",
              "type": "bool"
            }
          ],
          "internalType": "struct OrderContract.Order",
          "name": "",
          "type": "tuple"
        }
      ],
      "stateMutability": "view",
      "type": "function"
    },
    {
      "inputs": [],
      "name": "getOrderCount",
      "outputs": [
        {
          "internalType": "uint256",
          "name": "",
          "type": "uint256"
        }
      ],
      "stateMutability": "view",
      "type": "function"
    },
    {
      "inputs": [
        {
          "internalType": "uint256",
          "name": "orderId",
          "type": "uint256"
        }
      ],
      "name": "getOrderDishIds",
      "outputs": [
        {
          "internalType": "uint256[]",
          "name": "",
          "type": "uint256[]"
        }
      ],
      "stateMutability": "view",
      "type": "function"
    },
    {
      "inputs": [
        {
          "internalType": "uint256",
          "name": "orderId",
          "type": "uint256"
        }
      ],
      "name": "getOrderQtys",
      "outputs": [
        {
          "internalType": "uint256[]",
          "name": "",
          "type": "uint256[]"
        }
      ],
      "stateMutability": "view",
      "type": "function"
    },
    {
      "inputs": [
        {
          "internalType": "uint256",
          "name": "",
          "type": "uint256"
        },
        {
          "internalType": "uint256",
          "name": "",
          "type": "uint256"
        }
      ],
      "name": "orderDishIds",
      "outputs": [
        {
          "internalType": "uint256",
          "name": "",
          "type": "uint256"
        }
      ],
      "stateMutability": "view",
      "type": "function"
    },
    {
      "inputs": [
        {
          "internalType": "uint256",
          "name": "",
          "type": "uint256"
        },
        {
          "internalType": "uint256",
          "name": "",
          "type": "uint256"
        }
      ],
      "name": "orderQtys",
      "outputs": [
        {
          "internalType": "uint256",
          "name": "",
          "type": "uint256"
        }
      ],
      "stateMutability": "view",
      "type": "function"
    },
    {
      "inputs": [
        {
          "internalType": "uint256",
          "name": "",
          "type": "uint256"
        }
      ],
      "name": "orders",
      "outputs": [
        {
          "internalType": "address",
          "name": "customer",
          "type": "address"
        },
        {
          "internalType": "address",
          "name": "merchant",
          "type": "address"
        },
        {
          "internalType": "address",
          "name": "rider",
          "type": "address"
        },
        {
          "internalType": "uint256",
          "name": "amount",
          "type": "uint256"
        },
        {
          "internalType": "uint256",
          "name": "platformFee",
          "type": "uint256"
        },
        {
          "internalType": "bool",
          "name": "accepted",
          "type": "bool"
        },
        {
          "internalType": "bool",
          "name": "picked",
          "type": "bool"
        },
        {
          "internalType": "bool",
          "name": "fulfilled",
          "type": "bool"
        }
      ],
      "stateMutability": "view",
      "type": "function"
    },
    {
      "inputs": [],
      "name": "owner",
      "outputs": [
        {
          "internalType": "address",
          "name": "",
          "type": "address"
        }
      ],
      "stateMutability": "view",
      "type": "function"
    },
    {
      "inputs": [
        {
          "internalType": "uint256",
          "name": "orderId",
          "type": "uint256"
        }
      ],
      "name": "pickOrder",
      "outputs": [],
      "stateMutability": "nonpayable",
      "type": "function"
    },
    {
      "inputs": [],
      "name": "platformAddress",
      "outputs": [
        {
          "internalType": "address",
          "name": "",
          "type": "address"
        }
      ],
      "stateMutability": "view",
      "type": "function"
    },
    {
      "inputs": [],
      "name": "rcoToken",
      "outputs": [
        {
          "internalType": "contract IERC20",
          "name": "",
          "type": "address"
        }
      ],
      "stateMutability": "view",
      "type": "function"
    },
    {
      "inputs": [],
      "name": "reputationNFT",
      "outputs": [
        {
          "internalType": "contract IReputationNFT",
          "name": "",
          "type": "address"
        }
      ],
      "stateMutability": "view",
      "type": "function"
    },
    {
      "inputs": [
        {
          "internalType": "address",
          "name": "_platform",
          "type": "address"
        }
      ],
      "name": "setPlatformAddress",
      "outputs": [],
      "stateMutability": "nonpayable",
      "type": "function"
    }
  ],
  "bytecode": "0x60806040523480156200001157600080fd5b50604051620016d6380380620016d68339810160408190526200003491620000a1565b600080546001600160a01b039485166001600160a01b03199182161790915560018054938516938216939093179092556002805491909316908216179091556003805490911633179055620000eb565b80516001600160a01b03811681146200009c57600080fd5b919050565b600080600060608486031215620000b757600080fd5b620000c28462000084565b9250620000d26020850162000084565b9150620000e26040850162000084565b90509250925092565b6115db80620000fb6000396000f3fe60806040526004361061011f5760003560e01c8063add5bac1116100a0578063dbc4220411610064578063dbc4220414610377578063dbe55e5614610393578063ebdc353c146103b3578063ef18e9ed146103d3578063fa488649146103f357600080fd5b8063add5bac1146102ce578063c4e599ea146102ea578063cc03c3421461030a578063cf684a831461032a578063d09ef2411461034a57600080fd5b806382ee8ff7116100e757806382ee8ff7146101c85780638d0a5fbb146101e45780638da5cb5b146101f9578063a6a3509014610231578063a85c38ef1461025e57600080fd5b806334fbc9a1146101245780633543cad7146101535780636311e830146101755780636bb95f67146101955780636e753784146101b5575b600080fd5b34801561013057600080fd5b50610140670de0b6b3a764000081565b6040519081526020015b60405180910390f35b34801561015f57600080fd5b5061017361016e366004611299565b610413565b005b34801561018157600080fd5b50610173610190366004611299565b610531565b3480156101a157600080fd5b506101406101b03660046112b2565b610bfd565b6101406101c3366004611320565b610c2e565b3480156101d457600080fd5b50610140674563918244f4000081565b3480156101f057600080fd5b50600454610140565b34801561020557600080fd5b50600354610219906001600160a01b031681565b6040516001600160a01b03909116815260200161014a565b34801561023d57600080fd5b5061025161024c366004611299565b610ea7565b60405161014a919061139a565b34801561026a57600080fd5b5061027e610279366004611299565b610f09565b604080516001600160a01b03998a1681529789166020890152959097169486019490945260608501929092526080840152151560a0830152151560c082015290151560e08201526101000161014a565b3480156102da57600080fd5b50610140671bc16d674ec8000081565b3480156102f657600080fd5b50600054610219906001600160a01b031681565b34801561031657600080fd5b506101736103253660046113de565b610f75565b34801561033657600080fd5b50610251610345366004611299565b610fdd565b34801561035657600080fd5b5061036a610365366004611299565b61103d565b60405161014a919061140e565b34801561038357600080fd5b506101406729a2241af62c000081565b34801561039f57600080fd5b50600254610219906001600160a01b031681565b3480156103bf57600080fd5b506101406103ce3660046112b2565b61111f565b3480156103df57600080fd5b506101736103ee366004611299565b61113b565b3480156103ff57600080fd5b50600154610219906001600160a01b031681565b600454811061043d5760405162461bcd60e51b81526004016104349061148b565b60405180910390fd5b600060048281548110610452576104526114b4565b60009182526020909120600690910201600581015490915060ff16801561048357506005810154610100900460ff16155b801561049a5750600581015462010000900460ff16155b6104da5760405162461bcd60e51b81526020600482015260116024820152704e6f7420726561647920746f207069636b60781b6044820152606401610434565b6002810180546001600160a01b0319163390811790915560058201805461ff00191661010017905560405183907fb671e9c7b4e38fff1dfc3ff88d0a15e2becb12fcf8a1a644caf442e713b7981a90600090a35050565b60045481106105525760405162461bcd60e51b81526004016104349061148b565b600060048281548110610567576105676114b4565b906000526020600020906006020190508060050160019054906101000a900460ff1680156105a05750600581015462010000900460ff16155b6105ec5760405162461bcd60e51b815260206004820152601f60248201527f4e6f74207069636b6564206f7220616c72656164792066756c66696c6c6564006044820152606401610434565b60028101546001600160a01b031633146106415760405162461bcd60e51b815260206004820152601660248201527513db9b1e481c9a59195c8818d85b88199d5b199a5b1b60521b6044820152606401610434565b60058101805462ff0000191662010000179055600054815460405163a9059cbb60e01b81526001600160a01b039182166004820152671bc16d674ec80000602482015291169063a9059cbb906044016020604051808303816000875af11580156106af573d6000803e3d6000fd5b505050506040513d601f19601f820116820180604052508101906106d391906114ca565b6107145760405162461bcd60e51b8152602060048201526012602482015271155cd95c881c995dd85c990819985a5b195960721b6044820152606401610434565b600054600182015460405163a9059cbb60e01b81526001600160a01b0391821660048201526729a2241af62c0000602482015291169063a9059cbb906044016020604051808303816000875af1158015610772573d6000803e3d6000fd5b505050506040513d601f19601f8201168201806040525081019061079691906114ca565b6107db5760405162461bcd60e51b815260206004820152601660248201527513595c98da185b9d081c995dd85c990819985a5b195960521b6044820152606401610434565b600054600282015460405163a9059cbb60e01b81526001600160a01b039182166004820152674563918244f40000602482015291169063a9059cbb906044016020604051808303816000875af1158015610839573d6000803e3d6000fd5b505050506040513d601f19601f8201168201806040525081019061085d91906114ca565b61089f5760405162461bcd60e51b8152602060048201526013602482015272149a59195c881c995dd85c990819985a5b1959606a1b6044820152606401610434565b60005460025460405163a9059cbb60e01b81526001600160a01b039182166004820152670de0b6b3a7640000602482015291169063a9059cbb906044016020604051808303816000875af11580156108fb573d6000803e3d6000fd5b505050506040513d601f19601f8201168201806040525081019061091f91906114ca565b6109615760405162461bcd60e51b8152602060048201526013602482015272141b185d199bdc9b481999594819985a5b1959606a1b6044820152606401610434565b60015481546001600160a01b03918216916340c10f19911661098485600a611502565b61098f90600161151f565b6040516001600160e01b031960e085901b1681526001600160a01b0390921660048301526024820152604401600060405180830381600087803b1580156109d557600080fd5b505af11580156109e9573d6000803e3d6000fd5b505060018054908401546001600160a01b0391821693506340c10f19925016610a1385600a611502565b610a1e90600261151f565b6040516001600160e01b031960e085901b1681526001600160a01b0390921660048301526024820152604401600060405180830381600087803b158015610a6457600080fd5b505af1158015610a78573d6000803e3d6000fd5b505060015460028401546001600160a01b0391821693506340c10f19925016610aa285600a611502565b610aad90600361151f565b6040516001600160e01b031960e085901b1681526001600160a01b0390921660048301526024820152604401600060405180830381600087803b158015610af357600080fd5b505af1158015610b07573d6000803e3d6000fd5b505050506001810154815460028084015460038501549154604080516001600160a01b0393841681526020810194909452670de0b6b3a764000090840152671bc16d674ec8000060608401526729a2241af62c00006080840152674563918244f4000060a0840152811660c0830152928316929091169084907f9351695f4ed18c747b12442b2fdfe522be13fb53188de4f41ce55d095cc7e75c9060e00160405180910390a4600254604051670de0b6b3a764000081526001600160a01b039091169083907f7f4361467af1084d366aacf23c0607d11742c55d3472543b6d5f03a9aee9faf49060200160405180910390a35050565b60056020528160005260406000208181548110610c1957600080fd5b90600052602060002001600091509150505481565b6000838214610c735760405162461bcd60e51b81526020600482015260116024820152704d69736d6174636865642061727261797360781b6044820152606401610434565b5060048054604080516101008082018352338252600060208084018281528486018381523460608701908152670de0b6b3a76400006080880190815260a0880186815260c0890187815260e08a0188815260018d018e559c885298517f8a35acfbc15ff81a39ae7d344fd709f28e8600b4aa8c65c6b64bfe7fe36bd19b60068d0290810180546001600160a01b03199081166001600160a01b039485161790915596517f8a35acfbc15ff81a39ae7d344fd709f28e8600b4aa8c65c6b64bfe7fe36bd19c82018054891691841691909117905594517f8a35acfbc15ff81a39ae7d344fd709f28e8600b4aa8c65c6b64bfe7fe36bd19d8601805490971691161790945590517f8a35acfbc15ff81a39ae7d344fd709f28e8600b4aa8c65c6b64bfe7fe36bd19e830155517f8a35acfbc15ff81a39ae7d344fd709f28e8600b4aa8c65c6b64bfe7fe36bd19f82015590517f8a35acfbc15ff81a39ae7d344fd709f28e8600b4aa8c65c6b64bfe7fe36bd1a090910180549551985161ffff1990961691151561ff001916919091179715159093029690961762ff0000191662010000931515939093029290921790558281526005909352909120610e37908686611239565b506000818152600660205260409020610e51908484611239565b50336001600160a01b0316817f5167a5c7b99eae34facbbe57115ebe6693c38ca096db3a7d7f94059ccb336e4d888888888834604051610e9696959493929190611564565b60405180910390a395945050505050565b600081815260056020908152604091829020805483518184028101840190945280845260609392830182828015610efd57602002820191906000526020600020905b815481526020019060010190808311610ee9575b50505050509050919050565b60048181548110610f1957600080fd5b60009182526020909120600690910201805460018201546002830154600384015460048501546005909501546001600160a01b0394851696509284169491909316929160ff808216916101008104821691620100009091041688565b6003546001600160a01b03163314610fbb5760405162461bcd60e51b81526020600482015260096024820152682737ba1037bbb732b960b91b6044820152606401610434565b600280546001600160a01b0319166001600160a01b0392909216919091179055565b600081815260066020908152604091829020805483518184028101840190945280845260609392830182828015610efd5760200282019190600052602060002090815481526020019060010190808311610ee95750505050509050919050565b6040805161010081018252600080825260208201819052918101829052606081018290526080810182905260a0810182905260c0810182905260e081019190915260048281548110611091576110916114b4565b6000918252602091829020604080516101008082018352600690940290920180546001600160a01b0390811684526001820154811695840195909552600281015490941690820152600383015460608201526004830154608082015260059092015460ff808216151560a08501529181048216151560c084015262010000900416151560e082015292915050565b60066020528160005260406000208181548110610c1957600080fd5b600454811061115c5760405162461bcd60e51b81526004016104349061148b565b600060048281548110611171576111716114b4565b60009182526020909120600690910201600581015490915060ff161580156111a45750600581015462010000900460ff16155b6111e25760405162461bcd60e51b815260206004820152600f60248201526e105b1c9958591e481a185b991b1959608a1b6044820152606401610434565b600180820180546001600160a01b0319163390811790915560058301805460ff191690921790915560405183907fa3a9d59445e437d97cac53692b666afef6c152b0642edd206bde8472f387e59a90600090a35050565b828054828255906000526020600020908101928215611274579160200282015b82811115611274578235825591602001919060010190611259565b50611280929150611284565b5090565b5b808211156112805760008155600101611285565b6000602082840312156112ab57600080fd5b5035919050565b600080604083850312156112c557600080fd5b50508035926020909101359150565b60008083601f8401126112e657600080fd5b50813567ffffffffffffffff8111156112fe57600080fd5b6020830191508360208260051b850101111561131957600080fd5b9250929050565b60008060008060006060868803121561133857600080fd5b85359450602086013567ffffffffffffffff8082111561135757600080fd5b61136389838a016112d4565b9096509450604088013591508082111561137c57600080fd5b50611389888289016112d4565b969995985093965092949392505050565b6020808252825182820181905260009190848201906040850190845b818110156113d2578351835292840192918401916001016113b6565b50909695505050505050565b6000602082840312156113f057600080fd5b81356001600160a01b038116811461140757600080fd5b9392505050565b60006101008201905060018060a01b0380845116835280602085015116602084015280604085015116604084015250606083015160608301526080830151608083015260a0830151151560a083015260c083015161147060c084018215159052565b5060e083015161148460e084018215159052565b5092915050565b6020808252600f908201526e125b9d985b1a59081bdc99195c9259608a1b604082015260600190565b634e487b7160e01b600052603260045260246000fd5b6000602082840312156114dc57600080fd5b8151801515811461140757600080fd5b634e487b7160e01b600052601160045260246000fd5b8082028115828204841417611519576115196114ec565b92915050565b80820180821115611519576115196114ec565b81835260006001600160fb1b0383111561154b57600080fd5b8260051b80836020870137939093016020019392505050565b86815260806020820152600061157e608083018789611532565b8281036040840152611591818688611532565b91505082606083015297965050505050505056fea264697066735822122078abe2c24e636b53e761d0bd3f567fbe47141be0478382e19cb2d0e2d662f7f564736f6c63430008140033",
  "linkReferences": {},
  "deployedLinkReferences": {}
}