{
  "_format": "hh-sol-artifact-1",
  "contractName": "ReputationNFT",
  "sourceName": "contracts/ReputationNFT.sol",
  "abi": [
    {
      "inputs": [],
      "stateMutability": "nonpayable",
      "type": "constructor"
    },
    {
      "anonymous": false,
      "inputs": [
        {
          "indexed": true,
          "internalType": "address",
          "name": "owner",
          "type": "address"
        },
        {
          "indexed": true,
          "internalType": "address",
          "name": "approved",
          "type": "address"
        },
        {
          "indexed": true,
          "internalType": "uint256",
          "name": "tokenId",
          "type": "uint256"
        }
      ],
      "name": "Approval",
      "type": "event"
    },
    {
      "anonymous": false,
      "inputs": [
        {
          "indexed": true,
          "internalType": "address",
          "name": "owner",
          "type": "address"
        },
        {
          "indexed": true,
          "internalType": "address",
          "name": "operator",
          "type": "address"
        },
        {
          "indexed": false,
          "internalType": "bool",
          "name": "approved",
          "type": "bool"
        }
      ],
      "name": "ApprovalForAll",
      "type": "event"
    },
    {
      "anonymous": false,
      "inputs": [
        {
          "indexed": true,
          "internalType": "address",
          "name": "previousOwner",
          "type": "address"
        },
        {
          "indexed": true,
          "internalType": "address",
          "name": "newOwner",
          "type": "address"
        }
      ],
      "name": "OwnershipTransferred",
      "type": "event"
    },
    {
      "anonymous": false,
      "inputs": [
        {
          "indexed": true,
          "internalType": "address",
          "name": "from",
          "type": "address"
        },
        {
          "indexed": true,
          "internalType": "address",
          "name": "to",
          "type": "address"
        },
        {
          "indexed": true,
          "internalType": "uint256",
          "name": "tokenId",
          "type": "uint256"
        }
      ],
      "name": "Transfer",
      "type": "event"
    },
    {
      "inputs": [
        {
          "internalType": "address",
          "name": "to",
          "type": "address"
        },
        {
          "internalType": "uint256",
          "name": "tokenId",
          "type": "uint256"
        }
      ],
      "name": "approve",
      "outputs": [],
      "stateMutability": "nonpayable",
      "type": "function"
    },
    {
      "inputs": [
        {
          "internalType": "address",
          "name": "owner",
          "type": "address"
        }
      ],
      "name": "balanceOf",
      "outputs": [
        {
          "internalType": "uint256",
          "name": "",
          "type": "uint256"
        }
      ],
      "stateMutability": "view",
      "type": "function"
    },
    {
      "inputs": [
        {
          "internalType": "uint256",
          "name": "tokenId",
          "type": "uint256"
        }
      ],
      "name": "getApproved",
      "outputs": [
        {
          "internalType": "address",
          "name": "",
          "type": "address"
        }
      ],
      "stateMutability": "view",
      "type": "function"
    },
    {
      "inputs": [
        {
          "internalType": "address",
          "name": "owner",
          "type": "address"
        },
        {
          "internalType": "address",
          "name": "operator",
          "type": "address"
        }
      ],
      "name": "isApprovedForAll",
      "outputs": [
        {
          "internalType": "bool",
          "name": "",
          "type": "bool"
        }
      ],
      "stateMutability": "view",
      "type": "function"
    },
    {
      "inputs": [
        {
          "internalType": "address",
          "name": "to",
          "type": "address"
        },
        {
          "internalType": "uint256",
          "name": "tokenId",
          "type": "uint256"
        }
      ],
      "name": "mint",
      "outputs": [],
      "stateMutability": "nonpayable",
      "type": "function"
    },
    {
      "inputs": [],
      "name": "minter",
      "outputs": [
        {
          "internalType": "address",
          "name": "",
          "type": "address"
        }
      ],
      "stateMutability": "view",
      "type": "function"
    },
    {
      "inputs": [],
      "name": "name",
      "outputs": [
        {
          "internalType": "string",
          "name": "",
          "type": "string"
        }
      ],
      "stateMutability": "view",
      "type": "function"
    },
    {
      "inputs": [],
      "name": "owner",
      "outputs": [
        {
          "internalType": "address",
          "name": "",
          "type": "address"
        }
      ],
      "stateMutability": "view",
      "type": "function"
    },
    {
      "inputs": [
        {
          "internalType": "uint256",
          "name": "tokenId",
          "type": "uint256"
        }
      ],
      "name": "ownerOf",
      "outputs": [
        {
          "internalType": "address",
          "name": "",
          "type": "address"
        }
      ],
      "stateMutability": "view",
      "type": "function"
    },
    {
      "inputs": [],
      "name": "renounceOwnership",
      "outputs": [],
      "stateMutability": "nonpayable",
      "type": "function"
    },
    {
      "inputs": [
        {
          "internalType": "address",
          "name": "from",
          "type": "address"
        },
        {
          "internalType": "address",
          "name": "to",
          "type": "address"
        },
        {
          "internalType": "uint256",
          "name": "tokenId",
          "type": "uint256"
        }
      ],
      "name": "safeTransferFrom",
      "outputs": [],
      "stateMutability": "nonpayable",
      "type": "function"
    },
    {
      "inputs": [
        {
          "internalType": "address",
          "name": "from",
          "type": "address"
        },
        {
          "internalType": "address",
          "name": "to",
          "type": "address"
        },
        {
          "internalType": "uint256",
          "name": "tokenId",
          "type": "uint256"
        },
        {
          "internalType": "bytes",
          "name": "data",
          "type": "bytes"
        }
      ],
      "name": "safeTransferFrom",
      "outputs": [],
      "stateMutability": "nonpayable",
      "type": "function"
    },
    {
      "inputs": [
        {
          "internalType": "address",
          "name": "operator",
          "type": "address"
        },
        {
          "internalType": "bool",
          "name": "approved",
          "type": "bool"
        }
      ],
      "name": "setApprovalForAll",
      "outputs": [],
      "stateMutability": "nonpayable",
      "type": "function"
    },
    {
      "inputs": [
        {
          "internalType": "address",
          "name": "_minter",
          "type": "address"
        }
      ],
      "name": "setMinter",
      "outputs": [],
      "stateMutability": "nonpayable",
      "type": "function"
    },
    {
      "inputs": [
        {
          "internalType": "bytes4",
          "name": "interfaceId",
          "type": "bytes4"
        }
      ],
      "name": "supportsInterface",
      "outputs": [
        {
          "internalType": "bool",
          "name": "",
          "type": "bool"
        }
      ],
      "stateMutability": "view",
      "type": "function"
    },
    {
      "inputs": [],
      "name": "symbol",
      "outputs": [
        {
          "internalType": "string",
          "name": "",
          "type": "string"
        }
      ],
      "stateMutability": "view",
      "type": "function"
    },
    {
      "inputs": [
        {
          "internalType": "uint256",
          "name": "index",
          "type": "uint256"
        }
      ],
      "name": "tokenByIndex",
      "outputs": [
        {
          "internalType": "uint256",
          "name": "",
          "type": "uint256"
        }
      ],
      "stateMutability": "view",
      "type": "function"
    },
    {
      "inputs": [
        {
          "internalType": "address",
          "name": "owner",
          "type": "address"
        },
        {
          "internalType": "uint256",
          "name": "index",
          "type": "uint256"
        }
      ],
      "name": "tokenOfOwnerByIndex",
      "outputs": [
        {
          "internalType": "uint256",
          "name": "",
          "type": "uint256"
        }
      ],
      "stateMutability": "view",
      "type": "function"
    },
    {
      "inputs": [
        {
          "internalType": "uint256",
          "name": "tokenId",
          "type": "uint256"
        }
      ],
      "name": "tokenURI",
      "outputs": [
        {
          "internalType": "string",
          "name": "",
          "type": "string"
        }
      ],
      "stateMutability": "view",
      "type": "function"
    },
    {
      "inputs": [],
      "name": "totalSupply",
      "outputs": [
        {
          "internalType": "uint256",
          "name": "",
          "type": "uint256"
        }
      ],
      "stateMutability": "view",
      "type": "function"
    },
    {
      "inputs": [
        {
          "internalType": "address",
          "name": "from",
          "type": "address"
        },
        {
          "internalType": "address",
          "name": "to",
          "type": "address"
        },
        {
          "internalType": "uint256",
          "name": "tokenId",
          "type": "uint256"
        }
      ],
      "name": "transferFrom",
      "outputs": [],
      "stateMutability": "nonpayable",
      "type": "function"
    },
    {
      "inputs": [
        {
          "internalType": "address",
          "name": "newOwner",
          "type": "address"
        }
      ],
      "name": "transferOwnership",
      "outputs": [],
      "stateMutability": "nonpayable",
      "type": "function"
    }
  ],
  "bytecode": "0x60806040523480156200001157600080fd5b506040518060400160405280600e81526020016d14995c1d5d185d1a5bdb8813919560921b8152506040518060400160405280600381526020016205245560ec1b815250816000908162000066919062000193565b50600162000075828262000193565b505050620000926200008c6200009860201b60201c565b6200009c565b6200025f565b3390565b600a80546001600160a01b038381166001600160a01b0319831681179093556040519116919082907f8be0079c531659141344cd1fd0a4f28419497f9722a3daafe3b4186f6b6457e090600090a35050565b634e487b7160e01b600052604160045260246000fd5b600181811c908216806200011957607f821691505b6020821081036200013a57634e487b7160e01b600052602260045260246000fd5b50919050565b601f8211156200018e57600081815260208120601f850160051c81016020861015620001695750805b601f850160051c820191505b818110156200018a5782815560010162000175565b5050505b505050565b81516001600160401b03811115620001af57620001af620000ee565b620001c781620001c0845462000104565b8462000140565b602080601f831160018114620001ff5760008415620001e65750858301515b600019600386901b1c1916600185901b1785556200018a565b600085815260208120601f198616915b8281101562000230578886015182559484019460019091019084016200020f565b50858210156200024f5787850151600019600388901b60f8161c191681555b5050505050600190811b01905550565b611a81806200026f6000396000f3fe608060405234801561001057600080fd5b50600436106101425760003560e01c80636352211e116100b8578063a22cb4651161007c578063a22cb4651461028f578063b88d4fde146102a2578063c87b56dd146102b5578063e985e9c5146102c8578063f2fde38b14610304578063fca3b5aa1461031757600080fd5b80636352211e1461024857806370a082311461025b578063715018a61461026e5780638da5cb5b1461027657806395d89b411461028757600080fd5b806318160ddd1161010a57806318160ddd146101d757806323b872dd146101e95780632f745c59146101fc57806340c10f191461020f57806342842e0e146102225780634f6ccce71461023557600080fd5b806301ffc9a71461014757806306fdde031461016f5780630754617214610184578063081812fc146101af578063095ea7b3146101c2575b600080fd5b61015a6101553660046115c0565b61032a565b60405190151581526020015b60405180910390f35b610177610355565b604051610166919061162d565b600b54610197906001600160a01b031681565b6040516001600160a01b039091168152602001610166565b6101976101bd366004611640565b6103e7565b6101d56101d0366004611675565b61040e565b005b6008545b604051908152602001610166565b6101d56101f736600461169f565b610528565b6101db61020a366004611675565b610559565b6101d561021d366004611675565b6105ef565b6101d561023036600461169f565b610648565b6101db610243366004611640565b610663565b610197610256366004611640565b6106f6565b6101db6102693660046116db565b610756565b6101d56107dc565b600a546001600160a01b0316610197565b6101776107f0565b6101d561029d3660046116f6565b6107ff565b6101d56102b0366004611748565b61080a565b6101776102c3366004611640565b610842565b61015a6102d6366004611824565b6001600160a01b03918216600090815260056020908152604080832093909416825291909152205460ff1690565b6101d56103123660046116db565b6108b6565b6101d56103253660046116db565b61092f565b60006001600160e01b0319821663780e9d6360e01b148061034f575061034f82610959565b92915050565b60606000805461036490611857565b80601f016020809104026020016040519081016040528092919081815260200182805461039090611857565b80156103dd5780601f106103b2576101008083540402835291602001916103dd565b820191906000526020600020905b8154815290600101906020018083116103c057829003601f168201915b5050505050905090565b60006103f2826109a9565b506000908152600460205260409020546001600160a01b031690565b6000610419826106f6565b9050806001600160a01b0316836001600160a01b03160361048b5760405162461bcd60e51b815260206004820152602160248201527f4552433732313a20617070726f76616c20746f2063757272656e74206f776e656044820152603960f91b60648201526084015b60405180910390fd5b336001600160a01b03821614806104a757506104a781336102d6565b6105195760405162461bcd60e51b815260206004820152603d60248201527f4552433732313a20617070726f76652063616c6c6572206973206e6f7420746f60448201527f6b656e206f776e6572206f7220617070726f76656420666f7220616c6c0000006064820152608401610482565b6105238383610a08565b505050565b6105323382610a76565b61054e5760405162461bcd60e51b815260040161048290611891565b610523838383610af5565b600061056483610756565b82106105c65760405162461bcd60e51b815260206004820152602b60248201527f455243373231456e756d657261626c653a206f776e657220696e646578206f7560448201526a74206f6620626f756e647360a81b6064820152608401610482565b506001600160a01b03919091166000908152600660209081526040808320938352929052205490565b600b546001600160a01b0316331461063a5760405162461bcd60e51b815260206004820152600e60248201526d139bdd08185d5d1a1bdc9a5e995960921b6044820152606401610482565b6106448282610c66565b5050565b6105238383836040518060200160405280600081525061080a565b600061066e60085490565b82106106d15760405162461bcd60e51b815260206004820152602c60248201527f455243373231456e756d657261626c653a20676c6f62616c20696e646578206f60448201526b7574206f6620626f756e647360a01b6064820152608401610482565b600882815481106106e4576106e46118de565b90600052602060002001549050919050565b6000818152600260205260408120546001600160a01b03168061034f5760405162461bcd60e51b8152602060048201526018602482015277115490cdcc8c4e881a5b9d985b1a59081d1bdad95b88125160421b6044820152606401610482565b60006001600160a01b0382166107c05760405162461bcd60e51b815260206004820152602960248201527f4552433732313a2061646472657373207a65726f206973206e6f7420612076616044820152683634b21037bbb732b960b91b6064820152608401610482565b506001600160a01b031660009081526003602052604090205490565b6107e4610c80565b6107ee6000610cda565b565b60606001805461036490611857565b610644338383610d2c565b6108143383610a76565b6108305760405162461bcd60e51b815260040161048290611891565b61083c84848484610dfa565b50505050565b606061084d826109a9565b600061086460408051602081019091526000815290565b9050600081511161088457604051806020016040528060008152506108af565b8061088e84610e2d565b60405160200161089f9291906118f4565b6040516020818303038152906040525b9392505050565b6108be610c80565b6001600160a01b0381166109235760405162461bcd60e51b815260206004820152602660248201527f4f776e61626c653a206e6577206f776e657220697320746865207a65726f206160448201526564647265737360d01b6064820152608401610482565b61092c81610cda565b50565b610937610c80565b600b80546001600160a01b0319166001600160a01b0392909216919091179055565b60006001600160e01b031982166380ac58cd60e01b148061098a57506001600160e01b03198216635b5e139f60e01b145b8061034f57506301ffc9a760e01b6001600160e01b031983161461034f565b6000818152600260205260409020546001600160a01b031661092c5760405162461bcd60e51b8152602060048201526018602482015277115490cdcc8c4e881a5b9d985b1a59081d1bdad95b88125160421b6044820152606401610482565b600081815260046020526040902080546001600160a01b0319166001600160a01b0384169081179091558190610a3d826106f6565b6001600160a01b03167f8c5be1e5ebec7d5bd14f71427d1e84f3dd0314c0f7b2291e5b200ac8c7c3b92560405160405180910390a45050565b600080610a82836106f6565b9050806001600160a01b0316846001600160a01b03161480610ac957506001600160a01b0380821660009081526005602090815260408083209388168352929052205460ff165b80610aed5750836001600160a01b0316610ae2846103e7565b6001600160a01b0316145b949350505050565b826001600160a01b0316610b08826106f6565b6001600160a01b031614610b2e5760405162461bcd60e51b815260040161048290611923565b6001600160a01b038216610b905760405162461bcd60e51b8152602060048201526024808201527f4552433732313a207472616e7366657220746f20746865207a65726f206164646044820152637265737360e01b6064820152608401610482565b610b9d8383836001610ec0565b826001600160a01b0316610bb0826106f6565b6001600160a01b031614610bd65760405162461bcd60e51b815260040161048290611923565b600081815260046020908152604080832080546001600160a01b03199081169091556001600160a01b0387811680865260038552838620805460001901905590871680865283862080546001019055868652600290945282852080549092168417909155905184937fddf252ad1be2c89b69c2b068fc378daa952ba7f163c4a11628f55a4df523b3ef91a4505050565b610644828260405180602001604052806000815250610f41565b600a546001600160a01b031633146107ee5760405162461bcd60e51b815260206004820181905260248201527f4f776e61626c653a2063616c6c6572206973206e6f7420746865206f776e65726044820152606401610482565b600a80546001600160a01b038381166001600160a01b0319831681179093556040519116919082907f8be0079c531659141344cd1fd0a4f28419497f9722a3daafe3b4186f6b6457e090600090a35050565b816001600160a01b0316836001600160a01b031603610d8d5760405162461bcd60e51b815260206004820152601960248201527f4552433732313a20617070726f766520746f2063616c6c6572000000000000006044820152606401610482565b6001600160a01b03838116600081815260056020908152604080832094871680845294825291829020805460ff191686151590811790915591519182527f17307eab39ab6107e8899845ad3d59bd9653f200f220920489ca2b5937696c31910160405180910390a3505050565b610e05848484610af5565b610e1184848484610f74565b61083c5760405162461bcd60e51b815260040161048290611968565b60606000610e3a83611075565b600101905060008167ffffffffffffffff811115610e5a57610e5a611732565b6040519080825280601f01601f191660200182016040528015610e84576020820181803683370190505b5090508181016020015b600019016f181899199a1a9b1b9c1cb0b131b232b360811b600a86061a8153600a8504945084610e8e57509392505050565b610ecc8484848461114d565b6001600160a01b0384161580610ee957506001600160a01b038316155b61083c5760405162461bcd60e51b8152602060048201526024808201527f52657075746174696f6e204e46547320617265206e6f6e2d7472616e7366657260448201526361626c6560e01b6064820152608401610482565b610f4b8383611281565b610f586000848484610f74565b6105235760405162461bcd60e51b815260040161048290611968565b60006001600160a01b0384163b1561106a57604051630a85bd0160e11b81526001600160a01b0385169063150b7a0290610fb89033908990889088906004016119ba565b6020604051808303816000875af1925050508015610ff3575060408051601f3d908101601f19168201909252610ff0918101906119f7565b60015b611050573d808015611021576040519150601f19603f3d011682016040523d82523d6000602084013e611026565b606091505b5080516000036110485760405162461bcd60e51b815260040161048290611968565b805181602001fd5b6001600160e01b031916630a85bd0160e11b149050610aed565b506001949350505050565b60008072184f03e93ff9f4daa797ed6e38ed64bf6a1f0160401b83106110b45772184f03e93ff9f4daa797ed6e38ed64bf6a1f0160401b830492506040015b6d04ee2d6d415b85acef810000000083106110e0576d04ee2d6d415b85acef8100000000830492506020015b662386f26fc1000083106110fe57662386f26fc10000830492506010015b6305f5e1008310611116576305f5e100830492506008015b612710831061112a57612710830492506004015b6064831061113c576064830492506002015b600a831061034f5760010192915050565b60018111156111bc5760405162461bcd60e51b815260206004820152603560248201527f455243373231456e756d657261626c653a20636f6e7365637574697665207472604482015274185b9cd9995c9cc81b9bdd081cdd5c1c1bdc9d1959605a1b6064820152608401610482565b816001600160a01b0385166112185761121381600880546000838152600960205260408120829055600182018355919091527ff3f7a9fe364faab93b216da50a3214154f22a0a2b415b23a84c8169e8b636ee30155565b61123b565b836001600160a01b0316856001600160a01b03161461123b5761123b858261141a565b6001600160a01b03841661125757611252816114b7565b61127a565b846001600160a01b0316846001600160a01b03161461127a5761127a8482611566565b5050505050565b6001600160a01b0382166112d75760405162461bcd60e51b815260206004820181905260248201527f4552433732313a206d696e7420746f20746865207a65726f20616464726573736044820152606401610482565b6000818152600260205260409020546001600160a01b03161561133c5760405162461bcd60e51b815260206004820152601c60248201527f4552433732313a20746f6b656e20616c7265616479206d696e746564000000006044820152606401610482565b61134a600083836001610ec0565b6000818152600260205260409020546001600160a01b0316156113af5760405162461bcd60e51b815260206004820152601c60248201527f4552433732313a20746f6b656e20616c7265616479206d696e746564000000006044820152606401610482565b6001600160a01b038216600081815260036020908152604080832080546001019055848352600290915280822080546001600160a01b0319168417905551839291907fddf252ad1be2c89b69c2b068fc378daa952ba7f163c4a11628f55a4df523b3ef908290a45050565b6000600161142784610756565b6114319190611a14565b600083815260076020526040902054909150808214611484576001600160a01b03841660009081526006602090815260408083208584528252808320548484528184208190558352600790915290208190555b5060009182526007602090815260408084208490556001600160a01b039094168352600681528383209183525290812055565b6008546000906114c990600190611a14565b600083815260096020526040812054600880549394509092849081106114f1576114f16118de565b906000526020600020015490508060088381548110611512576115126118de565b600091825260208083209091019290925582815260099091526040808220849055858252812055600880548061154a5761154a611a35565b6001900381819060005260206000200160009055905550505050565b600061157183610756565b6001600160a01b039093166000908152600660209081526040808320868452825280832085905593825260079052919091209190915550565b6001600160e01b03198116811461092c57600080fd5b6000602082840312156115d257600080fd5b81356108af816115aa565b60005b838110156115f85781810151838201526020016115e0565b50506000910152565b600081518084526116198160208601602086016115dd565b601f01601f19169290920160200192915050565b6020815260006108af6020830184611601565b60006020828403121561165257600080fd5b5035919050565b80356001600160a01b038116811461167057600080fd5b919050565b6000806040838503121561168857600080fd5b61169183611659565b946020939093013593505050565b6000806000606084860312156116b457600080fd5b6116bd84611659565b92506116cb60208501611659565b9150604084013590509250925092565b6000602082840312156116ed57600080fd5b6108af82611659565b6000806040838503121561170957600080fd5b61171283611659565b91506020830135801515811461172757600080fd5b809150509250929050565b634e487b7160e01b600052604160045260246000fd5b6000806000806080858703121561175e57600080fd5b61176785611659565b935061177560208601611659565b925060408501359150606085013567ffffffffffffffff8082111561179957600080fd5b818701915087601f8301126117ad57600080fd5b8135818111156117bf576117bf611732565b604051601f8201601f19908116603f011681019083821181831017156117e7576117e7611732565b816040528281528a602084870101111561180057600080fd5b82602086016020830137600060208483010152809550505050505092959194509250565b6000806040838503121561183757600080fd5b61184083611659565b915061184e60208401611659565b90509250929050565b600181811c9082168061186b57607f821691505b60208210810361188b57634e487b7160e01b600052602260045260246000fd5b50919050565b6020808252602d908201527f4552433732313a2063616c6c6572206973206e6f7420746f6b656e206f776e6560408201526c1c881bdc88185c1c1c9bdd9959609a1b606082015260800190565b634e487b7160e01b600052603260045260246000fd5b600083516119068184602088016115dd565b83519083019061191a8183602088016115dd565b01949350505050565b60208082526025908201527f4552433732313a207472616e736665722066726f6d20696e636f72726563742060408201526437bbb732b960d91b606082015260800190565b60208082526032908201527f4552433732313a207472616e7366657220746f206e6f6e20455243373231526560408201527131b2b4bb32b91034b6b83632b6b2b73a32b960711b606082015260800190565b6001600160a01b03858116825284166020820152604081018390526080606082018190526000906119ed90830184611601565b9695505050505050565b600060208284031215611a0957600080fd5b81516108af816115aa565b8181038181111561034f57634e487b7160e01b600052601160045260246000fd5b634e487b7160e01b600052603160045260246000fdfea2646970667358221220d9684b1bd39102d9cc1e3a663b1f199189f678f353165f6c6ffa902a85e3dbee64736f6c63430008140033",
  "linkReferences": {},
  "deployedLinkReferences": {}
}